{
  "contractName": "DecentralizedInstagram",
  "abi": [
    {
      "anonymous": false,
      "inputs": [
        {
          "indexed": false,
          "internalType": "uint256",
          "name": "id",
          "type": "uint256"
        },
        {
          "indexed": false,
          "internalType": "string",
          "name": "ipfsHash",
          "type": "string"
        },
        {
          "indexed": false,
          "internalType": "string",
          "name": "text",
          "type": "string"
        },
        {
          "indexed": false,
          "internalType": "address",
          "name": "user",
          "type": "address"
        }
      ],
      "name": "PostCreated",
      "type": "event"
    },
    {
      "inputs": [],
      "name": "nextPostId",
      "outputs": [
        {
          "internalType": "uint256",
          "name": "",
          "type": "uint256"
        }
      ],
      "stateMutability": "view",
      "type": "function",
      "constant": true
    },
    {
      "inputs": [
        {
          "internalType": "uint256",
          "name": "",
          "type": "uint256"
        }
      ],
      "name": "posts",
      "outputs": [
        {
          "internalType": "uint256",
          "name": "id",
          "type": "uint256"
        },
        {
          "internalType": "string",
          "name": "ipfsHash",
          "type": "string"
        },
        {
          "internalType": "string",
          "name": "text",
          "type": "string"
        },
        {
          "internalType": "address",
          "name": "user",
          "type": "address"
        }
      ],
      "stateMutability": "view",
      "type": "function",
      "constant": true
    },
    {
      "inputs": [
        {
          "internalType": "string",
          "name": "ipfsHash",
          "type": "string"
        },
        {
          "internalType": "string",
          "name": "text",
          "type": "string"
        }
      ],
      "name": "createPost",
      "outputs": [],
      "stateMutability": "nonpayable",
      "type": "function"
    },
    {
      "inputs": [],
      "name": "getPosts",
      "outputs": [
        {
          "components": [
            {
              "internalType": "uint256",
              "name": "id",
              "type": "uint256"
            },
            {
              "internalType": "string",
              "name": "ipfsHash",
              "type": "string"
            },
            {
              "internalType": "string",
              "name": "text",
              "type": "string"
            },
            {
              "internalType": "address",
              "name": "user",
              "type": "address"
            }
          ],
          "internalType": "struct DecentralizedInstagram.Post[]",
          "name": "",
          "type": "tuple[]"
        }
      ],
      "stateMutability": "view",
      "type": "function",
      "constant": true
    }
  ],
  "bytecode": "0x6080604052600060015534801561001557600080fd5b50610c82806100256000396000f3fe608060405234801561001057600080fd5b506004361061004c5760003560e01c80630b1e7f8314610051578063392338f51461008457806341f3004a146100a05780635c09bd98146100be575b600080fd5b61006b60048036038101906100669190610732565b6100dc565b60405161007b949392919061093d565b60405180910390f35b61009e600480360381019061009991906106ba565b61024c565b005b6100a86103a9565b6040516100b59190610900565b60405180910390f35b6100c661058c565b6040516100d39190610922565b60405180910390f35b600081815481106100ec57600080fd5b906000526020600020906004020160009150905080600001549080600101805461011590610b20565b80601f016020809104026020016040519081016040528092919081815260200182805461014190610b20565b801561018e5780601f106101635761010080835404028352916020019161018e565b820191906000526020600020905b81548152906001019060200180831161017157829003601f168201915b5050505050908060020180546101a390610b20565b80601f01602080910402602001604051908101604052809291908181526020018280546101cf90610b20565b801561021c5780601f106101f15761010080835404028352916020019161021c565b820191906000526020600020905b8154815290600101906020018083116101ff57829003601f168201915b5050505050908060030160009054906101000a900473ffffffffffffffffffffffffffffffffffffffff16905084565b600060015490506000339050600060405180608001604052808481526020018681526020018581526020018373ffffffffffffffffffffffffffffffffffffffff16815250905060008190806001815401808255809150506001900390600052602060002090600402016000909190919091506000820151816000015560208201518160010190805190602001906102e5929190610592565b506040820151816002019080519060200190610302929190610592565b5060608201518160030160006101000a81548173ffffffffffffffffffffffffffffffffffffffff021916908373ffffffffffffffffffffffffffffffffffffffff1602179055505050600180600082825461035e9190610a4c565b925050819055507fb80f87406b72baa5a47a424e6c8f284ee91e4fef063c94c62ab1ea33a27a858b8386868560405161039a949392919061093d565b60405180910390a15050505050565b60606000805480602002602001604051908101604052809291908181526020016000905b8282101561058357838290600052602060002090600402016040518060800160405290816000820154815260200160018201805461040a90610b20565b80601f016020809104026020016040519081016040528092919081815260200182805461043690610b20565b80156104835780601f1061045857610100808354040283529160200191610483565b820191906000526020600020905b81548152906001019060200180831161046657829003601f168201915b5050505050815260200160028201805461049c90610b20565b80601f01602080910402602001604051908101604052809291908181526020018280546104c890610b20565b80156105155780601f106104ea57610100808354040283529160200191610515565b820191906000526020600020905b8154815290600101906020018083116104f857829003601f168201915b505050505081526020016003820160009054906101000a900473ffffffffffffffffffffffffffffffffffffffff1673ffffffffffffffffffffffffffffffffffffffff1673ffffffffffffffffffffffffffffffffffffffff1681525050815260200190600101906103cd565b50505050905090565b60015481565b82805461059e90610b20565b90600052602060002090601f0160209004810192826105c05760008555610607565b82601f106105d957805160ff1916838001178555610607565b82800160010185558215610607579182015b828111156106065782518255916020019190600101906105eb565b5b5090506106149190610618565b5090565b5b80821115610631576000816000905550600101610619565b5090565b6000610648610643846109b5565b610990565b90508281526020810184848401111561066457610663610c15565b5b61066f848285610ade565b509392505050565b600082601f83011261068c5761068b610c10565b5b813561069c848260208601610635565b91505092915050565b6000813590506106b481610c35565b92915050565b600080604083850312156106d1576106d0610c1f565b5b600083013567ffffffffffffffff8111156106ef576106ee610c1a565b5b6106fb85828601610677565b925050602083013567ffffffffffffffff81111561071c5761071b610c1a565b5b61072885828601610677565b9150509250929050565b60006020828403121561074857610747610c1f565b5b6000610756848285016106a5565b91505092915050565b600061076b8383610878565b905092915050565b61077c81610aa2565b82525050565b61078b81610aa2565b82525050565b600061079c826109f6565b6107a68185610a19565b9350836020820285016107b8856109e6565b8060005b858110156107f457848403895281516107d5858261075f565b94506107e083610a0c565b925060208a019950506001810190506107bc565b50829750879550505050505092915050565b600061081182610a01565b61081b8185610a2a565b935061082b818560208601610aed565b61083481610c24565b840191505092915050565b600061084a82610a01565b6108548185610a3b565b9350610864818560208601610aed565b61086d81610c24565b840191505092915050565b600060808301600083015161089060008601826108e2565b50602083015184820360208601526108a88282610806565b915050604083015184820360408601526108c28282610806565b91505060608301516108d76060860182610773565b508091505092915050565b6108eb81610ad4565b82525050565b6108fa81610ad4565b82525050565b6000602082019050818103600083015261091a8184610791565b905092915050565b600060208201905061093760008301846108f1565b92915050565b600060808201905061095260008301876108f1565b8181036020830152610964818661083f565b90508181036040830152610978818561083f565b90506109876060830184610782565b95945050505050565b600061099a6109ab565b90506109a68282610b52565b919050565b6000604051905090565b600067ffffffffffffffff8211156109d0576109cf610be1565b5b6109d982610c24565b9050602081019050919050565b6000819050602082019050919050565b600081519050919050565b600081519050919050565b6000602082019050919050565b600082825260208201905092915050565b600082825260208201905092915050565b600082825260208201905092915050565b6000610a5782610ad4565b9150610a6283610ad4565b9250827fffffffffffffffffffffffffffffffffffffffffffffffffffffffffffffffff03821115610a9757610a96610b83565b5b828201905092915050565b6000610aad82610ab4565b9050919050565b600073ffffffffffffffffffffffffffffffffffffffff82169050919050565b6000819050919050565b82818337600083830152505050565b60005b83811015610b0b578082015181840152602081019050610af0565b83811115610b1a576000848401525b50505050565b60006002820490506001821680610b3857607f821691505b60208210811415610b4c57610b4b610bb2565b5b50919050565b610b5b82610c24565b810181811067ffffffffffffffff82111715610b7a57610b79610be1565b5b80604052505050565b7f4e487b7100000000000000000000000000000000000000000000000000000000600052601160045260246000fd5b7f4e487b7100000000000000000000000000000000000000000000000000000000600052602260045260246000fd5b7f4e487b7100000000000000000000000000000000000000000000000000000000600052604160045260246000fd5b600080fd5b600080fd5b600080fd5b600080fd5b6000601f19601f8301169050919050565b610c3e81610ad4565b8114610c4957600080fd5b5056fea2646970667358221220794374be700108767412f91e489f60ee9a08f04e1910ca54e17d74d839ea9a3c64736f6c63430008070033",
  "immutableReferences": {},
  "source": "// SPDX-License-Identifier: MIT\r\npragma solidity ^0.8.7;\r\n\r\ncontract DecentralizedInstagram {\r\n  Post[] public posts;\r\n  uint public nextPostId = 0;\r\n\r\n  struct Post {\r\n    uint id;\r\n    string ipfsHash;\r\n    string text;\r\n    address user;\r\n  }\r\n\r\n  event PostCreated(uint id, string ipfsHash, string text, address user);\r\n\r\n  function createPost(string memory ipfsHash, string memory text) public {\r\n    uint idForNewPost = nextPostId;\r\n    address user = msg.sender;\r\n\r\n    Post memory newPost = Post(idForNewPost, ipfsHash, text, user);\r\n    posts.push(newPost);\r\n\r\n    nextPostId += 1;\r\n\r\n    emit PostCreated(idForNewPost, ipfsHash, text, user);\r\n  }\r\n\r\n  function getPosts() public view returns (Post[] memory) {\r\n    return posts;\r\n  }\r\n}",
  "sourcePath": "C:/Users/bguillen/Documents/sandbox/dapp-pocs/dmvp-projects/instagram/contracts/DecentralizedInstagram.sol",
  "compiler": {
    "name": "solc",
    "version": "0.8.7+commit.e28d00a7.Emscripten.clang"
  },
  "schemaVersion": "3.2.3",
  "updatedAt": "2021-10-06T13:45:14.453Z",
  "networkType": "ethereum",
  "devdoc": {
    "kind": "dev",
    "methods": {},
    "version": 1
  },
  "userdoc": {
    "kind": "user",
    "methods": {},
    "version": 1
  }
}